:1000000019C033C032C031C030C02FC02EC02DC087
:100010002CC02BC02AC029C028C027C026C025C09C
:1000200024C023C022C021C020C01FC01EC01DC0CC
:100030001CC01BC011241FBECFEFD4E0DEBFCDBF5C
:1000400012E0A0E0B1E0E8E4F3E102C005900D9217
:10005000A430B107D9F712E0A4E0B2E001C01D92CC
:10006000AB30B107E1F7ACD46DC9CACF282F2295C8
:100070002F709AE0299F900111248F70820F0895AC
:10008000482F6AE016D6282F30E084E0220F331F75
:100090008A95E1F7842F0DD6892F822B08951F931F
:1000A000DF93CF93CDB7DEB72C970FB6F894DEBFB2
:1000B0000FBECDBFDE011196E8EFF1E08CE00190BC
:1000C0000D928150E1F710920502809106028F5F38
:1000D000809306028C33E8F11092060280910702A9
:1000E0008F5F809307028831A0F110920702409140
:1000F00009024F5F4093090210910802212F30E05E
:10010000C90160E971E0F5D5892B49F023703070A1
:10011000232B39F4812F64E6CCD5992311F08DE19E
:100120008A8390910402FE01E90FF11D81818417F9
:1001300030F481E0809309029F5F909304028091E4
:1001400004028C3030F081E0809304021F5F109332
:1001500008022C960FB6F894DEBF0FBECDBFCF912C
:10016000DF911F91089560E020E030E040E050E032
:1001700080917A00806C80937A0080917A0086FD6D
:10018000FCCF8091780090917900A0E0B0E0280F3A
:10019000391F4A1F5B1F6F5F603851F795E0569516
:1001A0004795379527959A95D1F72652324040408A
:1001B0005040CA01B9012BE130E040E050E05AD58F
:1001C00024E630E040E050E0A7D5C9010895FF9251
:1001D0000F931F93F82E092F162F80EA17D5812F22
:1001E00018D5802F16D58F2D14D53CD580E29EE4EE
:1001F0000197F1F71F910F91FF9008950F931F93AF
:10020000082F162F80EA02D5812F03D5802F01D524
:1002100029D580E29EE40197F1F71F910F9108958F
:100220000F931F93182F062F80EDF0D4882329F405
:10023000812FEFD4802FEDD415D51F910F91089504
:100240000F931F93182F80EAE1D4812FE2D481EA23
:10025000F2D4F4D4182FFCD4082F04D5312F20E089
:10026000200F311DC9011F910F9108951F93182F61
:1002700080EACCD4812FCDD481EADDD4E9D4182F03
:10028000F1D4812F1F9108952F923F924F925F9248
:100290006F927F929F92AF92BF92CF92DF92EF9236
:1002A000FF920F931F93DF93CF93CDB7DEB7A09745
:1002B0000FB6F894DEBF0FBECDBFEFD380E0D6DF20
:1002C00000D000D000D0EDB7FEB731968E010F5FA1
:1002D0001F4FADB7BEB712961C930E93119720E037
:1002E00031E0338322838483158266D58DB79EB730
:1002F00006960FB6F8949EBF0FBE8DBFC80123D4DB
:1003000081E0B4DF8093080282E0B0DF80930402D2
:1003100083E0ACDF8093090284E0A8DF80930702CA
:1003200085E0A4DF8093060286E08ADF7C01ADB71A
:10033000BEB71E970FB6F894BEBF0FBEADBFEDB7E8
:10034000FEB7319612961C930E9311978EE091E0B2
:1003500093838283809109028483158280910402B1
:100360008683178280910802808711868091070218
:100370008287138680910602848715861DD58DB7E6
:100380009EB70E960FB6F8949EBF0FBE8DBF80E04D
:1003900062E0C4D3C801D7D380E395E728EC30E00E
:1003A000F9013197F1F70197D9F701E010E078E012
:1003B000B72E6E010894C11CD11C69E2262E61E0A3
:1003C000362E5EE0452E51E0552E48EC642E712C01
:1003D000C7016AE070E079D4962EA72EC7016AE0C3
:1003E00070E073D47C0159D3ADB7BEB71A970FB67E
:1003F000F894BEBF0FBEADBFEDB7FEB731961296F3
:10040000DC92CE92119733822282158304839682E6
:10041000A782E086F186D0D48DB79EB70A960FB634
:10042000F8949EBF0FBE8DBFC6018DD3ADB7BEB7CA
:100430001E970FB6F894BEBF0FBEADBFEDB7FEB7A7
:1004400031961296DC92CE9211975382428280911D
:100450000902848315828091040286831782809129
:100460000802808711868091070282871386809117
:10047000060284871586A0D48DB79EB70E960FB658
:10048000F8949EBF0FBE8DBF80E062E047D3C601E7
:100490005AD38CED95E0F3013197F1F70197D9F735
:1004A000189923C0199921C000E010E030E1C32E53
:1004B00037E2D32E28ECE22EF12CC6010197F1F79A
:1004C00080E0602F9BDEE9D28BE391E03CD384EFA8
:1004D00091E0F7013197F1F70197D9F70F5F1F4FBF
:1004E00091E00030190749F727C018997CCF189B75
:1004F000FECF80E0BBDE90E008171907A1F4CDD253
:1005000087E491E020D380E062E008D382E591E0C7
:100510001AD384EC99E028EC30E0F9013197F1F737
:100520000197D9F709C0BBDD8B2D8ADE7C010F5FF7
:100530001F4FA2E0BA0E4CCFA0960FB6F894DEBFC4
:100540000FBECDBFCF91DF911F910F91FF90EF9024
:10055000DF90CF90BF90AF909F907F906F905F9013
:100560004F903F902F9008951F9380ED4FD3882395
:1005700011F081E052C080E04CD380ED5CD35ED3BB
:10058000282F2F7722952F701AE0219F9001112498
:100590008F70820F8093050251D3282F2F772295D9
:1005A0002F70219F900111248F70820F809306027B
:1005B00045D3282F2F7322952F70219F900111244E
:1005C0008F70820F8093070239D3877080930A025D
:1005D00035D3282F2F7322952F70219F900111243E
:1005E0008F70820F8093090229D3282F2F712295B3
:1005F0002F70219F900111248F70820F809304022D
:1006000027D3282F22952F70219F900111248F70BE
:10061000820F8093080226D380E01F9108958F9265
:100620009F92AF92BF92CF92DF92EF92FF920F9381
:100630001F93DF93CF93CDB7DEB760970FB6F894D3
:10064000DEBF0FBECDBF29D28CE591E07CD2809178
:10065000080261E0D3DD8091040262E0CFDD809189
:10066000090263E0CBDD8091070264E0C7DD809181
:10067000060265E0C3DD77DD66E0A9DDB1E0EB2EC3
:10068000F12C6E010894C11CD11CAAE68A2EA1E0AF
:100690009A2EF8ECAF2EB12C66DD8C0164DD9C0146
:1006A0008DB79EB70A970FB6F8949EBF0FBE8DBF49
:1006B000EDB7FEB73196ADB7BEB71296DC92CE92CB
:1006C000119793828282F582E482C8016AE070E029
:1006D000FCD277836683C9016AE070E0F6D2918725
:1006E00080876AD38DB79EB70A960FB6F8949EBFDF
:1006F0000FBE8DBF84E062E011D2C60124D234DF88
:10070000809105026CE3D5D2992351F480E197E200
:10071000F5013197F1F70197D9F70894E11CF11C25
:1007200022DDB7016E5F7F4F660F771F50DD8E2D84
:1007300060E064DD80E09ADD8C3769F0189944C090
:10074000199942C008C088E592E0F9013197F1F7A4
:100750000197D9F702C028EC30E0189902C0199B24
:10076000F2CF9BD188E791E0EED180E07FDD00D031
:1007700000D000D0EDB7FEB731968E010F5F1F4F4E
:10078000ADB7BEB712961C930E93119722E831E0D5
:1007900033832283848315820FD38DB79EB7069649
:1007A0000FB6F8949EBF0FBE8DBF80E062E0B6D159
:1007B000C801C9D188E99AE328EC30E0F901319702
:1007C000F1F70197D9F705C09DE7E916F10408F4A0
:1007D00063CF60960FB6F894DEBF0FBECDBFCF914A
:1007E000DF911F910F91FF90EF90DF90CF90BF901E
:1007F000AF909F908F9008951F93182F80ED06D291
:10080000882311F010E007C0812F03D280ED13D2AE
:100810001FD2182F27D2812F1F9108951F9380E098
:10082000EBDF182F80EDF2D1882311F081E027C093
:1008300080E0EFD117FF05C08091050221DC8068C0
:1008400004C0809105021CDC8F77E3D18091060201
:1008500017DCDFD18091070213DCDBD180910A0223
:10086000D8D1809109020CDCD4D18091040208DC3B
:10087000D0D18091080204DCCCD1F4D180E01F916A
:1008800008951F93182F80E0B7DF112319F0682F08
:100890006F7702C0682F606880E0C2DC1F91089506
:1008A000CF92DF92EF92FF920F931F93DF93CF933C
:1008B000CDB7DEB760970FB6F894DEBF0FBECDBFE1
:1008C0006C018DB79EB70E970FB6F8949EBF0FBE02
:1008D0008DBFEDB7FEB731968E010F5F1F4FADB7DD
:1008E000BEB712961C930E93119780E1E82EF12C5F
:1008F000F382E28283E991E0958384838091070209
:100900008683178280910602808711868091050276
:100910008287138680910802848715861FD28DB73F
:100920009EB70E960FB6F8949EBF0FBE8DBFB5D082
:10093000C80109D1ADB7BEB71E970FB6F894BEBFB8
:100940000FBEADBFEDB7FEB7319612961C930E9356
:100950001197F382E2828AEA91E095838483809101
:100960000902868317828091040280871186C6015E
:100970006AE070E0AAD173876287C6016AE070E01E
:10098000A4D195878487EAD18DB79EB70E960FB60E
:10099000F8949EBF0FBE8DBF80E062E0BFD0C8015B
:1009A000D2D060960FB6F894DEBF0FBECDBFCF9108
:1009B000DF911F910F91FF90EF90DF90CF900895FE
:1009C0000F931F93CF93DF93229A3BD06DD081E09A
:1009D0006AE00AD110927C0088EC80937C0086E06B
:1009E00080937A0080917A00806C80937A0028EE60
:1009F00033E0C8ECD0E005C0CE010197F1F72150FB
:100A0000304021153105C1F7AEDB8C01ADDDC801E9
:100A100047DF189911C080E029DC882311F034DC0D
:100A20000BC03BD08DEB91E08ED080E395E7FE01CB
:100A30003197F1F70197D9F7199BF1DD28EE33E0F3
:100A4000DBCF20982198289A299A08959BB19F700E
:100A50009BB99BB1807F892B8BB95B9A85E38A9583
:100A6000F1F75B9808951F93182F5A9AEFDF812FA3
:100A70008295807FEBDF8AE78A95F1F71F910895D1
:100A80001F93182F5A98E2DF812F8295807FDEDF37
:100A900080E78A95F1F71F91089581E0F1DF80EA00
:100AA0009FE00197F1F708950F931F938AB18C6F20
:100AB0008AB98BB183708BB980E395E70197F1F721
:100AC00080E3C4DF00E117E2C8010197F1F75B9A08
:100AD00025E3822F8A95F1F75B9880ED97E0FC0182
:100AE0003197F1F75B9A2A95F1F75B980197F1F747
:100AF00080E2ACDFC8010197F1F788E2C1DF8CE04A
:100B0000BFDF86E0BDDFC9DF1F910F91089582E04E
:100B1000B7DF80EA9FE00197F1F70895623061F056
:100B2000633018F4613071F405C0633039F064301B
:100B300049F406C0805805C0805403C0805701C0E6
:100B400080539EDF0895CF93DF93EC0102C021967E
:100B50008ADF88818823D9F7DF91CF9108950F9399
:100B60001F93CF93DF938B01880F880F880F8064CA
:100B700087DFC0E0D0E0F801EC0FFD1F808173DF5C
:100B80002196C830D105B9F7DF91CF911F910F9110
:100B90000895982F84EA8093BC008091BC0087FF61
:100BA000FCCF8091B900887F883039F08091B900FE
:100BB000887F803111F081E008959093BB0084E834
:100BC0008093BC008091BC0087FFFCCF8091B9006E
:100BD000887F883139F08091B900887F803411F0A6
:100BE00082E0089580E008956B3008F46BE03D9852
:100BF0003C98882319F0459A449A02C04598449835
:100C00006093B80081E08093B90008958E7FC1DFC2
:100C100008958093BB0084E88093BC008091BC0061
:100C200087FFFCCF8091B90090E0887F883209F07F
:100C300091E0892F08958160ACDF089584EC809362
:100C4000BC008091BC0087FFFCCF8091BB00089561
:100C500084E88093BC008091BC0087FFFCCF80912A
:100C6000BB00089584E98093BC008091BC0084FDA2
:100C7000FCCF0895629FD001739FF001829FE00D29
:100C8000F11D649FE00DF11D929FF00D839FF00D0B
:100C9000749FF00D659FF00D9927729FB00DE11DB7
:100CA000F91F639FB00DE11DF91FBD01CF01112494
:100CB0000895991B79E004C0991F961708F0961BB8
:100CC000881F7A95C9F780950895AA1BBB1B51E12F
:100CD00007C0AA1FBB1FA617B70710F0A61BB70BAC
:100CE000881F991F5A95A9F780959095BC01CD0151
:100CF000089597FB092E07260AD077FD04D0E5DF7B
:100D000006D000201AF4709561957F4F0895F6F78C
:100D1000909581959F4F0895A1E21A2EAA1BBB1BA7
:100D2000FD010DC0AA1FBB1FEE1FFF1FA217B307B7
:100D3000E407F50720F0A21BB30BE40BF50B661FCD
:100D4000771F881F991F1A9469F760957095809591
:100D500090959B01AC01BD01CF010895AEE0B0E0DC
:100D6000E3EBF6E0C6C20D891E898F89988D97FF47
:100D700002C080E090E801979E838D831A830983E7
:100D800086E08C839E01255E3F4FCE010196698DE2
:100D90007A8DA90132D04D815E8157FD0AC02F8125
:100DA0003885421753070CF49A01020F131FF801FC
:100DB00010822E96E4E0B9C2AEE0B0E0E1EEF6E0DB
:100DC00098C20D891E8986E08C831A8309838FEF70
:100DD0009FE79E838D839E01275E3F4FCE01019644
:100DE0006F89788DA90109D02F813885020F131FD3
:100DF000F80110822E96E4E098C2ABE0B0E0E2E0A9
:100E0000F7E069C23C012B015A01FC0117821682EE
:100E1000838181FD03C06FEF7FEFB9C19AE0892E16
:100E20001E010894211C311CF3012381F20123FDD2
:100E3000859123FF81912F01882309F4A5C1853273
:100E400039F423FD859123FF81912F01853221F40F
:100E500090E0B301B6D1E8CF982FFF24EE24992477
:100E6000FFE1FF15D0F09B3269F09C3228F49032FC
:100E700059F0933291F40EC09D3249F0903369F4E9
:100E800041E024C052E0F52A84E0F82A28C098E026
:100E9000F92A25C0E0E1FE2A22C0F7FC29C0892FEB
:100EA00080538A3070F4F6FE05C0989C902C112473
:100EB000980E15C0E89CE02C1124E80EF0E2FF2A01
:100EC0000EC09E3229F4F6FC5FC140E4F42A07C04C
:100ED0009C3619F450E8F52A02C0983649F4F2011C
:100EE00023FD959123FF91912F01992309F0B8CF0C
:100EF000892F8554833018F08052833038F444E0D1
:100F000050E0A40EB51E5FE359830FC0933631F055
:100F1000933779F0933509F052C01FC0F5018081F5
:100F2000898342E050E0A40EB51E610101E010E0AB
:100F300011C0F501C080D180F6FC03C06FEF7FEFD8
:100F400002C0692D70E042E050E0A40EB51EC6015B
:100F50002DD18C015FE7F52213C0F501C080D1804F
:100F6000F6FC03C06FEF7FEF02C0692D70E042E036
:100F700050E0A40EB51EC6010ED18C0150E8F52A32
:100F8000F3FE06C018C080E290E0B3011AD1EA94E3
:100F90008E2D90E008171907B0F30DC0F601F7FC8D
:100FA0008591F7FE81916F0190E0B3010AD1E110C4
:100FB000EA94015010400115110581F7E2C0943602
:100FC00011F0993661F5F7FE08C0F50120813181F5
:100FD0004281538184E090E00AC0F50180819181D3
:100FE0009C01442737FD4095542F82E090E0A80EE5
:100FF000B91E9FE6F92257FF09C0509540953095DC
:1010000021953F4F4F4F5F4FE0E8FE2ACA01B901DB
:10101000A1012AE030E001D1D82ED2183FC0953787
:1010200029F41F2D1F7E2AE030E01DC01F2D197FDF
:101030009F3661F0903720F4983509F0A5C00FC0B5
:10104000903739F0983709F09FC004C028E030E0AD
:101050000AC0106114FD146020E130E004C014FDEA
:10106000166020E132E017FF08C0F5016081718150
:101070008281938144E050E008C0F5018081918134
:10108000BC0180E090E042E050E0A40EB51EA1015A
:10109000C4D0D82ED2188FE7F82EF122F6FE0BC05E
:1010A0005EEFF522D91438F4F4FE07C0F2FC05C057
:1010B0008FEEF82202C01D2D01C0192DF4FE0DC0C7
:1010C000FE01ED0DF11D8081803319F499EEF922B6
:1010D00008C01F5FF2FE05C003C08F2D867809F09F
:1010E0001F5F0F2DF3FC13C0F0FE0EC01E1510F095
:1010F0009D2C0AC09D2C9E0C911A1E2D05C080E2CD
:1011000090E0B3015ED01F5F1E15C8F304C01E152A
:1011100010F4E11A01C0EE2404FF0EC080E390E059
:10112000B3014FD002FF1BC001FD03C088E790E070
:101130000EC088E590E00BC0802F867881F001FF1B
:1011400002C08BE201C080E2F7FC8DE290E0B301C7
:1011500038D005C080E390E0B30133D09A94D9141D
:10116000C8F3DA94F101ED0DF11D808190E0B30137
:1011700028D0DD20B1F705C080E290E0B30121D096
:10118000EA94EE20C9F750CEF30166817781CB0156
:101190002B96E2E1BCC0FC0105906150704001104B
:1011A000D8F7809590958E0F9F1F0895FC01615090
:1011B000704001900110D8F7809590958E0F9F1F79
:1011C00008950F931F93CF93DF938C01EB018B81D5
:1011D00081FF1BC082FF0DC02E813F818C819D81CC
:1011E0002817390764F4E881F9810193F983E883CA
:1011F00006C0E885F985802F0995892B31F48E8109
:101200009F8101969F838E8302C00FEF1FEFC8015D
:10121000DF91CF911F910F910895FA01AA272830ED
:1012200051F1203181F1E8946F936E7F6E5F7F4FB3
:101230008F4F9F4FAF4FB1E03ED0B4E03CD0670F2F
:10124000781F891F9A1FA11D680F791F8A1F911D82
:10125000A11D6A0F711D811D911DA11D20D009F4D2
:1012600068943F912AE0269F11243019305D319314
:10127000DEF6CF010895462F4770405D4193B3E0FD
:101280000FD0C9F7F6CF462F4F70405D4A3318F0A4
:10129000495D31FD4052419302D0A9F7EACFB4E055
:1012A000A6959795879577956795BA95C9F700970D
:1012B0006105710508959B01AC010A2E06945795AE
:1012C000479537952795BA95C9F7620F731F841F05
:1012D000951FA01D08952F923F924F925F926F929B
:1012E0007F928F929F92AF92BF92CF92DF92EF92B6
:1012F000FF920F931F93CF93DF93CDB7DEB7CA1B37
:10130000DB0B0FB6F894DEBF0FBECDBF09942A8861
:10131000398848885F846E847D848C849B84AA8409
:10132000B984C884DF80EE80FD800C811B81AA8196
:10133000B981CE0FD11D0FB6F894DEBF0FBECDBF61
:08134000ED010895F894FFCFC0
:10134800496E204D656D6F72793A2025640025300D
:1013580032642F253032642F323025303264202514
:101368003032643A2530326400256420543D20250B
:10137800642E256420646567432000526573657494
:1013880074696E673A200046696E697368656421FE
:10139800210045786974696E6721210020446174D1
:1013A80061205265636F72643A0025642025642EBB
:1013B800256420646567430041206D6F6D656E7418
:1013C800210053617665642076616C7565733A20F7
:1013D800256400253032643A253032643A253032AB
:1013E80064202032302530326400253032642E25C6
:1013F800303264202025642E25642043004E6F205F
:1014080056616C75657321004D6F6E0054756500EB
:10141800576564005468750046726900536174002A
:1014280053756E0045727200C801CC01D001D40119
:10143800D801DC01E001E4011F1C1F1E1F1E1F1F35
:041448001E1F1E1F26
:00000001FF
